{"abi":[{"type":"function","name":"excludeArtifacts","inputs":[],"outputs":[{"name":"excludedArtifacts_","type":"string[]","internalType":"string[]"}],"stateMutability":"view"},{"type":"function","name":"excludeContracts","inputs":[],"outputs":[{"name":"excludedContracts_","type":"address[]","internalType":"address[]"}],"stateMutability":"view"},{"type":"function","name":"excludeSenders","inputs":[],"outputs":[{"name":"excludedSenders_","type":"address[]","internalType":"address[]"}],"stateMutability":"view"},{"type":"function","name":"targetArtifactSelectors","inputs":[],"outputs":[{"name":"targetedArtifactSelectors_","type":"tuple[]","internalType":"struct StdInvariant.FuzzSelector[]","components":[{"name":"addr","type":"address","internalType":"address"},{"name":"selectors","type":"bytes4[]","internalType":"bytes4[]"}]}],"stateMutability":"view"},{"type":"function","name":"targetArtifacts","inputs":[],"outputs":[{"name":"targetedArtifacts_","type":"string[]","internalType":"string[]"}],"stateMutability":"view"},{"type":"function","name":"targetContracts","inputs":[],"outputs":[{"name":"targetedContracts_","type":"address[]","internalType":"address[]"}],"stateMutability":"view"},{"type":"function","name":"targetSelectors","inputs":[],"outputs":[{"name":"targetedSelectors_","type":"tuple[]","internalType":"struct StdInvariant.FuzzSelector[]","components":[{"name":"addr","type":"address","internalType":"address"},{"name":"selectors","type":"bytes4[]","internalType":"bytes4[]"}]}],"stateMutability":"view"},{"type":"function","name":"targetSenders","inputs":[],"outputs":[{"name":"targetedSenders_","type":"address[]","internalType":"address[]"}],"stateMutability":"view"}],"bytecode":{"object":"0x6080604052348015600e575f5ffd5b506108d98061001c5f395ff3fe608060405234801561000f575f5ffd5b5060043610610085575f3560e01c806385226c811161005857806385226c81146100cc578063916a17c6146100e1578063b5508aa9146100e9578063e20c9f71146100f1575f5ffd5b80631ed7831c146100895780633e5e3c23146100a75780633f7286f4146100af57806366d9a9a0146100b7575b5f5ffd5b6100916100f9565b60405161009e919061064b565b60405180910390f35b610091610166565b6100916101d1565b6100bf61023c565b60405161009e91906106a3565b6100d4610348565b60405161009e919061079e565b6100bf610413565b6100d4610516565b6100916105e1565b6060600180548060200260200160405190810160405280929190818152602001828054801561015c57602002820191905f5260205f20905b815473ffffffffffffffffffffffffffffffffffffffff168152600190910190602001808311610131575b5050505050905090565b6060600380548060200260200160405190810160405280929190818152602001828054801561015c57602002820191905f5260205f2090815473ffffffffffffffffffffffffffffffffffffffff168152600190910190602001808311610131575050505050905090565b6060600280548060200260200160405190810160405280929190818152602001828054801561015c57602002820191905f5260205f2090815473ffffffffffffffffffffffffffffffffffffffff168152600190910190602001808311610131575050505050905090565b60606006805480602002602001604051908101604052809291908181526020015f905b8282101561033f575f84815260209081902060408051808201825260028602909201805473ffffffffffffffffffffffffffffffffffffffff16835260018101805483518187028101870190945280845293949193858301939283018282801561032757602002820191905f5260205f20905f905b82829054906101000a900460e01b7bffffffffffffffffffffffffffffffffffffffffffffffffffffffff1916815260200190600401906020826003010492830192600103820291508084116102d45790505b5050505050815250508152602001906001019061025f565b50505050905090565b60606005805480602002602001604051908101604052809291908181526020015f905b8282101561033f578382905f5260205f2001805461038890610852565b80601f01602080910402602001604051908101604052809291908181526020018280546103b490610852565b80156103ff5780601f106103d6576101008083540402835291602001916103ff565b820191905f5260205f20905b8154815290600101906020018083116103e257829003601f168201915b50505050508152602001906001019061036b565b60606007805480602002602001604051908101604052809291908181526020015f905b8282101561033f575f84815260209081902060408051808201825260028602909201805473ffffffffffffffffffffffffffffffffffffffff1683526001810180548351818702810187019094528084529394919385830193928301828280156104fe57602002820191905f5260205f20905f905b82829054906101000a900460e01b7bffffffffffffffffffffffffffffffffffffffffffffffffffffffff1916815260200190600401906020826003010492830192600103820291508084116104ab5790505b50505050508152505081526020019060010190610436565b60606004805480602002602001604051908101604052809291908181526020015f905b8282101561033f578382905f5260205f2001805461055690610852565b80601f016020809104026020016040519081016040528092919081815260200182805461058290610852565b80156105cd5780601f106105a4576101008083540402835291602001916105cd565b820191905f5260205f20905b8154815290600101906020018083116105b057829003601f168201915b505050505081526020019060010190610539565b60605f80548060200260200160405190810160405280929190818152602001828054801561015c57602002820191905f5260205f2090815473ffffffffffffffffffffffffffffffffffffffff168152600190910190602001808311610131575050505050905090565b602080825282518282018190525f918401906040840190835b8181101561069857835173ffffffffffffffffffffffffffffffffffffffff16835260209384019390920191600101610664565b509095945050505050565b5f602082016020835280845180835260408501915060408160051b8601019250602086015f5b82811015610792578685037fffffffffffffffffffffffffffffffffffffffffffffffffffffffffffffffc00184528151805173ffffffffffffffffffffffffffffffffffffffff168652602090810151604082880181905281519088018190529101905f9060608801905b8083101561077a577fffffffff000000000000000000000000000000000000000000000000000000008451168252602082019150602084019350600183019250610735565b509650505060209384019391909101906001016106c9565b50929695505050505050565b5f602082016020835280845180835260408501915060408160051b8601019250602086015f5b82811015610792577fffffffffffffffffffffffffffffffffffffffffffffffffffffffffffffffc0878603018452815180518087528060208301602089015e5f6020828901015260207fffffffffffffffffffffffffffffffffffffffffffffffffffffffffffffffe0601f830116880101965050506020820191506020840193506001810190506107c4565b600181811c9082168061086657607f821691505b60208210810361089d577f4e487b71000000000000000000000000000000000000000000000000000000005f52602260045260245ffd5b5091905056fea264697066735822122061c918a83711d69de3ee8ddd84a6701cb742311fa96aa4a46915b1f3ef1d0b4164736f6c634300081e0033","linkReferences":{}},"methodIdentifiers":{"excludeArtifacts()":"b5508aa9","excludeContracts()":"e20c9f71","excludeSenders()":"1ed7831c","targetArtifactSelectors()":"66d9a9a0","targetArtifacts()":"85226c81","targetContracts()":"3f7286f4","targetSelectors()":"916a17c6","targetSenders()":"3e5e3c23"},"id":11}