{"abi":[{"type":"constructor","inputs":[{"name":"_verifier","type":"address","internalType":"contract HonkVerifier"}],"stateMutability":"nonpayable"},{"type":"function","name":"getVerifiedCount","inputs":[],"outputs":[{"name":"","type":"uint256","internalType":"uint256"}],"stateMutability":"view"},{"type":"function","name":"verifiedCount","inputs":[],"outputs":[{"name":"","type":"uint256","internalType":"uint256"}],"stateMutability":"view"},{"type":"function","name":"verifier","inputs":[],"outputs":[{"name":"","type":"address","internalType":"contract HonkVerifier"}],"stateMutability":"view"},{"type":"function","name":"verifyBase64","inputs":[{"name":"proof","type":"bytes","internalType":"bytes"},{"name":"publicInputs","type":"bytes32[]","internalType":"bytes32[]"}],"outputs":[{"name":"","type":"bool","internalType":"bool"}],"stateMutability":"nonpayable"},{"type":"event","name":"ProofVerified","inputs":[{"name":"sender","type":"address","indexed":true,"internalType":"address"}],"anonymous":false}],"bytecode":{"object":"0x6080604052348015600e575f5ffd5b506040516104c63803806104c6833981016040819052602b91604e565b5f80546001600160a01b0319166001600160a01b03929092169190911790556079565b5f60208284031215605d575f5ffd5b81516001600160a01b03811681146072575f5ffd5b9392505050565b610440806100865f395ff3fe608060405234801561000f575f5ffd5b506004361061004a575f3560e01c80632b7ac3f31461004e5780636bfe4ec214610097578063cb794042146100ae578063fa4f1b3e146100b6575b5f5ffd5b5f5461006d9073ffffffffffffffffffffffffffffffffffffffff1681565b60405173ffffffffffffffffffffffffffffffffffffffff90911681526020015b60405180910390f35b6100a060015481565b60405190815260200161008e565b6001546100a0565b6100c96100c4366004610228565b6100d9565b604051901515815260200161008e565b5f80546040517fea50d0e4000000000000000000000000000000000000000000000000000000008152829173ffffffffffffffffffffffffffffffffffffffff169063ea50d0e4906101359089908990899089906004016102f0565b602060405180830381865afa158015610150573d5f5f3e3d5ffd5b505050506040513d601f19601f820116820180604052508101906101749190610388565b9050806101e1576040517f08c379a000000000000000000000000000000000000000000000000000000000815260206004820152601260248201527f50726f6f66206973206e6f742076616c69640000000000000000000000000000604482015260640160405180910390fd5b60018054905f6101f0836103ae565b909155505060405133907f9cbb2c694eed9687ad9654ae462269807cc8b44f6dbd076f296bd916f1f3d0cd905f90a295945050505050565b5f5f5f5f6040858703121561023b575f5ffd5b843567ffffffffffffffff811115610251575f5ffd5b8501601f81018713610261575f5ffd5b803567ffffffffffffffff811115610277575f5ffd5b876020828401011115610288575f5ffd5b60209182019550935085013567ffffffffffffffff8111156102a8575f5ffd5b8501601f810187136102b8575f5ffd5b803567ffffffffffffffff8111156102ce575f5ffd5b8760208260051b84010111156102e2575f5ffd5b949793965060200194505050565b60408152836040820152838560608301375f606085830101525f7fffffffffffffffffffffffffffffffffffffffffffffffffffffffffffffffe0601f860116820160608382030160208401528360608201527f07ffffffffffffffffffffffffffffffffffffffffffffffffffffffffffffff84111561036f575f5ffd5b8360051b80866080840137016080019695505050505050565b5f60208284031215610398575f5ffd5b815180151581146103a7575f5ffd5b9392505050565b5f7fffffffffffffffffffffffffffffffffffffffffffffffffffffffffffffffff8203610403577f4e487b71000000000000000000000000000000000000000000000000000000005f52601160045260245ffd5b506001019056fea26469706673582212206517f6347beba65069279e81a7c241f0663aaa5e14c091ddc5b4de02cf6c469a64736f6c634300081e0033","linkReferences":{}},"methodIdentifiers":{"getVerifiedCount()":"cb794042","verifiedCount()":"6bfe4ec2","verifier()":"2b7ac3f3","verifyBase64(bytes,bytes32[])":"fa4f1b3e"},"id":0}