{"abi":[{"type":"function","name":"setUp","inputs":[],"outputs":[],"stateMutability":"nonpayable"},{"type":"function","name":"test_pass","inputs":[],"outputs":[],"stateMutability":"pure"}],"bytecode":{"object":"0x6080604052348015600e575f5ffd5b50606c80601a5f395ff3fe6080604052348015600e575f5ffd5b50600436106030575f3560e01c80630a9254e41460345780638ab68152146034575b5f5ffd5b00fea2646970667358221220a219d642ac6e69960b2d4c1a5ce85e0d7f61002c5ce7813355883cf57a65155c64736f6c634300081e0033","linkReferences":{}},"methodIdentifiers":{"setUp()":"0a9254e4","test_pass()":"8ab68152"},"id":2}