{"abi":[{"type":"function","name":"verify","inputs":[{"name":"proof","type":"bytes","internalType":"bytes"},{"name":"publicInputs","type":"bytes32[]","internalType":"bytes32[]"}],"outputs":[{"name":"","type":"bool","internalType":"bool"}],"stateMutability":"view"},{"type":"error","name":"ProofLengthWrong","inputs":[]},{"type":"error","name":"PublicInputsLengthWrong","inputs":[]},{"type":"error","name":"ShpleminiFailed","inputs":[]},{"type":"error","name":"SumcheckFailed","inputs":[]}],"bytecode":{"object":"0x60e0604052348015600e575f5ffd5b506020608052600560a052600160c05260805160a05160c0516159946100565f395f6105d501525f818161068101528181610f5f0152610ffb01525f61057e01526159945ff3fe608060405234801561000f575f5ffd5b5060043610610029575f3560e01c8063ea50d0e41461002d575b5f5ffd5b61004061003b366004615540565b610054565b604051901515815260200160405180910390f35b5f6100626101b86020615635565b841461009a576040517fed74ac0a00000000000000000000000000000000000000000000000000000000815260040160405180910390fd5b5f6100a36101fc565b90505f6100b08787610211565b604083015190915084146100f0576040517ffa06659300000000000000000000000000000000000000000000000000000000815260040160405180910390fd5b5f610107828787865f0151876040015160016104b9565b90506101558686808060200260200160405190810160405280939291908181526020018383602002808284375f92019190915250508451606081015160809091015190925090506001610568565b815160a001525f6101668383610679565b90508061019f576040517f9fc3a21800000000000000000000000000000000000000000000000000000000815260040160405180910390fd5b5f6101ab848685610793565b9050806101e4576040517fa5d82e8a00000000000000000000000000000000000000000000000000000000815260040160405180910390fd5b8180156101ee5750805b9a9950505050505050505050565b610204614d24565b61020c61137d565b905090565b6102196150a2565b61022e61022960805f858761564c565b611c5e565b81526102426102296101006080858761564c565b602082015261025a610229610180610100858761564c565b6040820152610272610229610200610180858761564c565b60a082015261028a610229610280610200858761564c565b60c08201526102a2610229610300610280858761564c565b60608201526102ba610229610380610300858761564c565b60e08201526102d2610229610400610380858761564c565b60808201526104005f5b601c811015610369575f5b600881101561036057610313868487610301826020615673565b9261030e9392919061564c565b611d76565b84610100015183601c811061032a5761032a615686565b6020020151826008811061034057610340615686565b6020020181815250506020836103569190615673565b92506001016102e7565b506001016102dc565b505f5b60288110156103bd57610386858386610301826020615673565b836101200151826028811061039d5761039d615686565b6020020181815250506020826103b39190615673565b915060010161036c565b505f5b6103cc6001601c6156b3565b811015610422576103f18583866103e4826080615673565b926102299392919061564c565b83610140015182601b811061040857610408615686565b6020020152610418608083615673565b91506001016103c0565b505f5b601c8110156104765761043f858386610301826020615673565b83610160015182601c811061045657610456615686565b60200201818152505060208261046c9190615673565b9150600101610425565b506104888482856103e4826080615673565b610180830152610499816080615673565b90506104ac8482856103e4826080615673565b6101a08301525092915050565b6104c1615295565b5f6104d188888888888887611df5565b90835290506104e08189611e76565b602084019190915290506104f381612011565b604084019190915290506105078882612072565b6060840191909152905061051b8882612146565b6080840191909152905061052f88826121d1565b60a08401919091529050610543888261233f565b60c0840191909152905061055788826123b1565b5060e0830152509695505050505050565b5f600180826105b1866105ac896105a76105a28a7f0000000000000000000000000000000000000000000000000000000000000000615673565b612408565b612439565b612465565b90505f6105cf876105ca8a6105a76105a28b6001615673565b612491565b90505f5b7f0000000000000000000000000000000000000000000000000000000000000000811015610661575f61061e8b838151811061061157610611615686565b6020026020010151612408565b905061062e866105a78684612465565b955061063e856105a78584612465565b945061064a848b612465565b9350610656838b612491565b9250506001016105d3565b5061066c84846124e6565b9998505050505050505050565b5f806001815b7f0000000000000000000000000000000000000000000000000000000000000000811015610769575f86610100015182601c81106106bf576106bf615686565b602002015190505f6106d182866124f4565b90508061070a576040517f9fc3a21800000000000000000000000000000000000000000000000000000000815260040160405180910390fd5b5f876060015184601c811061072157610721615686565b602002015190506107328382612511565b9550610759886040015185601c811061074d5761074d615686565b602002015186836126c0565b945050505080600101905061067f565b505f610783866101200151865f01518760200151856126eb565b90508281145b9695505050505050565b5f6107da6040518061012001604052805f81526020015f81526020015f81526020015f81526020015f81526020015f81526020015f81526020015f81526020015f81525090565b5f6107e88460a00151612759565b90506107f2615319565b6107fa615338565b60e08601516108199061081490855f5b6020020151612491565b6127be565b60a085015260e08601516108389061081490855f5b6020020151612465565b60c080860182905260a086015190880151610857926105ac9190612439565b845260a08601516108859061086b906127be565b6105a78660a001516105ca8a60c001518960c00151612439565b602085810191909152600183526101808901516040805180820182525f8082529084015280518082018252828401518351608891821b178252606084015192909301519190921b179181019190915281526001606085018190525f60808601525b6023811161098c576109076108fd865f015161284d565b8660600151612439565b83826046811061091957610919615686565b602002015260808501516101208a015161095c91906105ac9061093d6001866156b3565b6028811061094d5761094d615686565b60200201518860600151612439565b85608001818152505061097785606001518860800151612439565b6060860152610985816156c6565b90506108e6565b505f61099a60236001615673565b90505b60288111610a1b576109b56108fd866020015161284d565b8382604681106109c7576109c7615686565b602002015260808501516101208a01516109eb91906105ac9061093d6001866156b3565b856080018181525050610a0685606001518860800151612439565b6060860152610a14816156c6565b905061099d565b50606087015181600160200201526080870151816002602002015260a0870151816003602002015260c0870151816004602002015260e0870151816005602002015261010087015181600660200201526101208701518160076020020152610140870151816008602002015261016087015181600960200201526101a087015181600a602002015261018087015181600b60200201526101c087015181600c60200201526101e087015181600d602002015261020087015181600e602002015261022087015181600f60200201526102408701518160106020020152610260870151816011602002015261028087015181601260200201526102a087015181601360200201526102c087015181601460200201526102e08701518160156020020152610300870151816016602002015261032087015181601760200201526103408701518160186020020152610360870151816019602002015261038087015181601a60200201526103a087015181601b60200201528751610be190604080518082019091525f8082526020820152604051806040016040528060888460200151901b845f015117815260200160888460600151901b8460400151178152509050919050565b6103808201526020888101516040805180820182525f8082529084015280518082018252828401518351608891821b178252606084015192909301519190921b17918101919091526103a0820152604088810151815180830183525f80825260209182015282518084018452818301518351608891821b178252606084015193909401519290931b909117908201526103c08201526060888101516040805180820182525f80825260209182015281518083018352818401518451608891821b1782529484015192909301519190931b17918101919091526103e082015260808801516040805180820182525f80825260209182015281518083018352818401518451608891821b178252606085015193909401519290931b9091179082015261040082015260e08801516040805180820182525f80825260209182015281518083018352818401518451608891821b178252606085015193909401519290931b9091179082015261042082015260a08801516040805180820182525f80825260209182015281518083018352818401518451608891821b178252606085015193909401519290931b9091179082015261044082015260c08801516040805180820182525f80825260209182015281518083018352818401518451608891821b178252606085015193909401519290931b9091179082015261046082015287516040805180820182525f80825260209182015281518083018352818401518451608891821b178252606085015193909401519290931b909117908201526104808201526020888101516040805180820182525f8082529084015280518082018252828401518351608891821b178252606084015192909301519190921b17918101919091526104a0820152604088810151815180830183525f80825260209182015282518084018452818301518351608891821b178252606084015193909401519290931b909117908201526104c08201526060888101516040805180820182525f80825260209182015281518083018352818401518451608891821b1782529484015192909301519190931b17918101919091526104e082015260808801516040805180820182525f80825260209182015281518083018352818401518451608891821b178252606085015193909401519290931b90911790820152610500820152606086015160808501516101608a01515f92610f83929091877f0000000000000000000000000000000000000000000000000000000000000000612878565b805160a0870151919250610f9691612439565b604086018190526101608a01515160c0890151610fc692916105ac91610fbc9190612439565b8860c00151612439565b604086015260c0870151610fd990612993565b60608601525f5b610fec6001601c6156b3565b811015611233575f61101f60017f00000000000000000000000000000000000000000000000000000000000000006156b3565b821015905080611194576110526108148a60e00151888560016110429190615673565b601c811061080a5761080a615686565b60a088015260e0890151611080906108149088611070866001615673565b601c811061082e5761082e615686565b60c0880152606087015160a08801516110999190612439565b60e0880152606087015160c08a01516110b591610fbc91612439565b61010088018190526110d7906110ca9061284d565b6105ac8960e0015161284d565b85836110e560286001615673565b6110ef9190615673565b604681106110ff576110ff615686565b60200201526101008701516101608c01515f9161113b91611121866001615673565b601c811061113157611131615686565b6020020151612439565b9050611157816105ac8a60e00151878760016111219190615673565b9050611167886040015182612465565b6040890152606088015160c08b015161118d9161118391612439565b8b60c00151612439565b6060890152505b6111fd8b610140015183601b81106111ae576111ae615686565b6020020151604080518082019091525f8082526020820152604051806040016040528060888460200151901b845f015117815260200160888460600151901b8460400151178152509050919050565b848361120b60286001615673565b6112159190615673565b6046811061122557611225615686565b602002015250600101610fe0565b5060408051808201909152600181526002602082015282611256601c6028615673565b6046811061126657611266615686565b602002015260408501518361127d601c6028615673565b6046811061128d5761128d615686565b60200201526101a08901515f906112e890604080518082019091525f8082526020820152604051806040016040528060888460200151901b845f015117815260200160888460600151901b8460400151178152509050919050565b905080836112f8601c6028615673565b611303906001615673565b6046811061131357611313615686565b602002015260e08801518461132a601c6028615673565b611335906001615673565b6046811061134557611345615686565b60200201525f611355848661299e565b90505f61136183612a6f565b905061136d8282612ae6565b9c9b505050505050505050505050565b611385614d24565b50604080516103c08101825260208082526005818301526001828401819052835180850185527f04b4d61ade1d37c8e3c929fddaa305af5c5749675039613b17bf4f7d9ecaccbe81527f21577a975177e1afcfe4e9558bc37b2cbf5cb7016442b9e419c0f243b3f1ee84818401526060840152835180850185527f0c06ba04831033d71a2f93f6f2ac03eb001ea863d65adf15964bd3175fbaed8b81527f2e0d84cea5d17b514641ad1ce5a169eb69ac7dea60872e54aa8e7356dfc1fbc6818401526080840152835180850185527f1254b655e034ed6d67b585445791d4202f6be67a86b9ea3c0a90ebcc13ccc09d81527f08ce9cb672901da1cae1e46a01c79ee7fe3677f1aff433bfce0d7e0922d257f08184015260a0840152835180850185527f1e4e224863a6f93d074b9eb35be0752e03b14032187ee5e9676b5a8c6840748a81527f2375d5891fd7b8896f7fbdcd29dc72b356a96d1cb5d0bf9e975fa25c29da404e8184015260c0840152835180850185527f163c2e3179dc876958b427cc5047c4e0a0ec38475ae4750f882b279b78dcc5a781527f0f82f075f34c4284f998087cc5d68d97c443c1d7e23911517c17e050aeedeea98184015260e0840152835180850185527f1edd23abde75acc67bac3c8b73a3e895d781557978bb103b120874c6abda9a6e81527f226172fc392c559b92f26a5d3d7a4434b5b33ef507aee80f3da53b03500ea9a081840152610100840152835180850185527f2453e056dc179bdc9164de8e3654ed72bd9f54e6e9b57129ce995b19cec0c90f81527f15bc4680db7eb8100d97a8cfaeabcda043139c10e1840d9a1a7bba0989618a5a81840152610120840152835180850185527f05c934906e51cd15356e024fe0dd22087b9cf4fe07646ca11635774909e61e7181527f07e6390853085fb55b3150506947d268a2a9305a899f956e3c82403ad50de98881840152610140840152835180850185527f1a11684e6c135cbe0b0ccdb27df1434557e054c65df3af7487468bdfa2fd832581527f2a8f4fba8e6893b6d523e9572d7f4c60cadfef00619e58d7db7f2b28cec2120281840152610160840152835180850185527f0524c8e7146a41551c673b3139893fa365285bca50c9a1b5a476834f5f518c0581527f0e3589731c046d57d3ae60d42e595d73cc5e8e83438261bdb144c99daa9fe18b81840152610180840152835180850185527f1469006b8b61c8d79301dfeeed1b752548d2ebff7ed60a3cda0c7db10c955c8a81527f19c2b11ddeff8ffe68ab919e345670ab029bcbce4a91df6570722995d636f037818401526101a0840152835180850185527f1aebf53057be467f5c3ed0f88d90604a4c8d6886256adeca293661e04f1a3ddf81527f2bb5fcc21332b83521c63599557c6473249908a160efa4921bc0e5c16da58b6f818401526101c0840152835180850185527f2d855b5b9eda31247e5c717ce51db5b7b0f74ed8027eddb28bb72f061415e49e81527f1e857d997cc8bd0b6558b670690358ad63520266c81078227f33651c341b7704818401526101e0840152835180850185527f0c89908013343fefa88a7f268b0cdb7f992976bbe0d373708ea1cfd0c6ee605181527f1bafe88c5f135deff56927b79fb145781ed300fb221919c92a5e94d3a1176d6081840152610200840152835180850185527f0a7e7efae612b7a16e39ca962cd80c53fca8f25624d398dd1fdfad33261c581781527f11ffda5c69f22aeff436dcc1dadc86ee233ebb32c9496b1257218f810a64009381840152610220840152835180850185527f1aca635e5b120e33433dac21a65ff616e4583c5297464a05e82b860fbc7d9f3181527f06d91d59463b6141a2f96d2d0b4973624a6ef0790906b34a823f0f01aca48e7d81840152610240840152835180850185527f28160c15b401a66ad9e37ead6bdaccf0606e1b091bf07a9703154b229d34f11c81527f1b744382a7eb21d5520bd3458c9f2c29f3b01c14bb5ca16c4d3815a38b0ebbb881840152610260840152835180850185527f198fe31afd292fe71907a371d77bef1eef72b0cdfaf08a080d9f60cfc3cdcbfd81527f22cbba4a7dcce08a3e72e929bbea797b90efcc7941ec27cf422bfce70bb2ebf081840152610280840152835180850185527f216f48f216956bf5f2bffd43e8f5bb0a27b62337e3c72fc14f0fe23540fdfdab81527f16fdff0f7b880bee6655918cd2ae2c7f49b7d0b116b26f429528b9ae3ece3e93818401526102a0840152835180850185527f1f5edc2f1423c26fafabeca3ff37601d06ee94451bd7f11260c405bb94ec240f81527f0d47efb56afb36565978fde2e0365209676ad79990079b3439139476a0ef4b4c818401526102c0840152835180850185527f234f723173cc7b579c93591e8202960dab08ef5d14fb60a2726234f379951dd581527f1aa3cb8219ab03bf9044815bc65e894e366f1f0478b0ec8641c4da7e284e9bb3818401526102e0840152835180850185527f21ba3aba551d4f6eb1224ddc6b1bd3222e6553035953037a679ab272fa3105b981527f2021ee9bf4036008c7c5360b19266d1256c709eafae29d6d2c39a34b1b77c86c81840152610300840152835180850185527f292ec6f935caa1df0c8f63212e0116c906e487174acb4ffd415b2d78e05072e681527f1d3047e5faf396ecdff46211993558a4755d42ee0b5ee4323e4a3c8dd012d10181840152610320840152835180850185527f0a0a057328da58331a5bdac41900c5160e17aff3205ebc50dd3e6ade8082c45981527f2f1f6579ac435ccd3becb11cac21a42f71677010de466cea777c910d9a5d4d6e81840152610340840152835180850185527f27456b3a666ff24c6452657437518f7b73e854ce6c763732122a3b923bc6797b81527f2ecbc0db4ae72d05db96eb72034b26275a33325b05b2dd53c33662369bcdc4e0818401526103608401528351808501855290815260028183015261038083015282518084019093527f1b8afad764d2cbe67c94249535bba7fcbd3f412f868487222aa54f3268ab64a283527f01b70a90a334c9bd5096aad8a0cc5d4c1d1cdb0fe415445bd0c84309caaf213e908301526103a081019190915290565b611c8560405180608001604052805f81526020015f81526020015f81526020015f81525090565b60808214611cf4576040517f08c379a000000000000000000000000000000000000000000000000000000000815260206004820152601360248201527f696e76616c696420627974657320706f696e740000000000000000000000000060448201526064015b60405180910390fd5b604080516080810190915280611d0d60205f868861564c565b611d16916156de565b8152602090810190611d2c90604090868861564c565b611d35916156de565b8152602001611d4860606040868861564c565b611d51916156de565b8152602001611d6460806060868861564c565b611d6d916156de565b90529392505050565b5f60208214611de1576040517f08c379a000000000000000000000000000000000000000000000000000000000815260206004820152601460248201527f696e76616c6964206279746573207363616c61720000000000000000000000006044820152606401611ceb565b611dee6105a283856156de565b9392505050565b611e286040518060c001604052805f81526020015f81526020015f81526020015f81526020015f81526020015f81525090565b5f611e37898989898989612cf7565b604086019190915260208501919091529083529250611e56838a61311a565b608085019190915260608401919091529199919850909650505050505050565b611e7e615371565b5f611e87615390565b84815260e0848101805151602080850191909152815181015160408086019190915282518101516060808701919091529251830151608080870191909152880180515160a0870152805183015160c08701528051820151948601949094529251909101516101008401529051611f1e91611f03918491016156fb565b60405160208183030381529060405280519060200120612408565b9150611f29826131e5565b6020850152835260015b611f3f6002601961575c565b811015611fbf57611f5c83604051602001611f0391815260200190565b9250611f67836131e5565b85611f73846002615635565b60198110611f8357611f83615686565b6020020186611f93856002615635565b611f9e906001615673565b60198110611fae57611fae615686565b602002019190915252600101611f33565b50611fd682604051602001611f0391815260200190565b91505f611fe2836131e5565b85611fef600160196156b3565b60198110611fff57611fff615686565b60200201919091525050509250929050565b6120196153af565b5f805b601c81101561206b5761203b84604051602001611f0391815260200190565b93505f612047856131e5565b8584601c811061205957612059615686565b6020020191909152505060010161201c565b5090929050565b61207a6153af565b5f805b601c81101561213d5761208e615390565b8481525f5b60088110156120f75786610100015183601c81106120b3576120b3615686565b602002015181600881106120c9576120c9615686565b6020020151826120da836001615673565b600981106120ea576120ea615686565b6020020152600101612093565b5061210c81604051602001611f0391906156fb565b94505f612118866131e5565b8685601c811061212a5761212a615686565b602002019190915250505060010161207d565b50909391925050565b5f5f6121506153ce565b8381525f5b60288110156121a357856101200151816028811061217557612175615686565b602002015182612186836001615673565b6029811061219657612196615686565b6020020152600101612155565b506121b881604051602001611f03919061576f565b91505f6121c4836131e5565b5096929550919350505050565b5f5f6121db6153ed565b8381525f5b6121ec6001601c6156b3565b81101561232a5785610140015181601b811061220a5761220a615686565b6020020151518261221c836004615635565b612227906001615673565b606d811061223757612237615686565b602002015261014086015181601b811061225357612253615686565b6020020151602001518282600461226a9190615635565b612275906002615673565b606d811061228557612285615686565b602002015261014086015181601b81106122a1576122a1615686565b602002015160400151826122b6836004615635565b6122c1906003615673565b606d81106122d1576122d1615686565b602002015261014086015181601b81106122ed576122ed615686565b60200201516060015182612302836004615635565b61230d906004615673565b606d811061231d5761231d615686565b60200201526001016121e0565b506121b881604051602001611f0391906157a3565b5f5f61234961540c565b8381525f5b601c81101561239c5785610160015181601c811061236e5761236e615686565b60200201518261237f836001615673565b601d811061238f5761238f615686565b602002015260010161234e565b506121b881604051602001611f0391906157d7565b5f5f6123bb61542b565b838152610180850180515160208084019190915281518101516040808501919091528251810151606080860191909152925190920151608084015290516121b891611f039184910161580b565b5f6124337f30644e72e131a029b85045b68181585d2833e84879b9709143e1f593f00000018361583e565b92915050565b5f7f30644e72e131a029b85045b68181585d2833e84879b9709143e1f593f00000018284099392505050565b5f7f30644e72e131a029b85045b68181585d2833e84879b9709143e1f593f00000018284089392505050565b5f7f30644e72e131a029b85045b68181585d2833e84879b9709143e1f593f00000016124dd837f30644e72e131a029b85045b68181585d2833e84879b9709143e1f593f00000016156b3565b84089392505050565b5f611dee836105a7846127be565b81515f9081906125069085600161082e565b929092149392505050565b60408051610100810182527f30644e72e131a029b85045b68181585d2833e84879b9709143e1f593efffec5181526102d060208201527f30644e72e131a029b85045b68181585d2833e84879b9709143e1f593efffff1191810191909152609060608201527f30644e72e131a029b85045b68181585d2833e84879b9709143e1f593efffff71608082015260f060a08201527f30644e72e131a029b85045b68181585d2833e84879b9709143e1f593effffd3160c08201526113b060e08201525f906001825b60088110156125f8576125ee826105a78784612491565b91506001016125d7565b50612601615449565b5f5b6008811015612662575f84826008811061261f5761261f615686565b60200201519050612634816105a78985612491565b905061263f816127be565b90508083836008811061265457612654615686565b602002015250600101612603565b505f5b60088110156126b5575f87826008811061268157612681615686565b6020020151905061269e8184846008811061113157611131615686565b90506126aa8682612465565b955050600101612665565b506107898483612439565b5f5f6126d660016105ac856105a7896001612491565b90506126e28482612439565b95945050505050565b5f6126f4615468565b6126ff86828561321e565b61270b868683866133ca565b612717868683866135b2565b6127228682856137ae565b61272d868285613996565b61273986868386613cdf565b6127448682856145cf565b61274f86828561499a565b6107898185614c8f565b6127616153af565b81815260015b601c8110156127b8576127998261277f6001846156b3565b601c811061278f5761278f615686565b6020020151612993565b8282601c81106127ab576127ab615686565b6020020152600101612767565b50919050565b5f5f8290505f604051602081526020808201526020604082015282606082015260027f30644e72e131a029b85045b68181585d2833e84879b9709143e1f593f00000010360808201527f30644e72e131a029b85045b68181585d2833e84879b9709143e1f593f000000160a082015260205f60c08360055afa905080612842575f5ffd5b50505f519392505050565b5f612433827f30644e72e131a029b85045b68181585d2833e84879b9709143e1f593f00000016156b3565b6128806153af565b601c5b8015612989575f846128966001846156b3565b601c81106128a6576128a6615686565b602002015190505f886128ba6001856156b3565b601c81106128ca576128ca615686565b602002015190505f6129256128e96128e2858c612439565b6002612439565b6105ca8a6128f86001896156b3565b601c811061290857612908615686565b60200201516105a761291f886105a760018a612491565b87612491565b9050612946816105a7610814612940876105a7600189612491565b86612465565b905085841161297557975087808561295f6001876156b3565b601c811061296f5761296f615686565b60200201525b5050508061298290615851565b9050612883565b5095945050505050565b5f6124338283612439565b604080518082019091525f80825260208201525f6129be601c6028615673565b6129c9906002615673565b90506001604051855151604082015285516020015160608201528451608082015260408160606040840160075afa8216915060015b83811015612a575760208102870160208202870181515160408501528151602001516060850152805160808501525050604080830160606040850160075afa8316925060408260808460065afa909216916001016129fe565b50805184526020810151602085015250505092915050565b604080518082019091525f80825260208201527f30644e72e131a029b85045b68181585d97816a916871ca8d3c208c16d87cfd4782602001517f30644e72e131a029b85045b68181585d97816a916871ca8d3c208c16d87cfd47612ad391906156b3565b612add919061583e565b60208301525090565b81516020808401518351848301516040805194850195909552938301919091527f198e9393920d483a7260bfb731fb5d25f1aa493335a9e71297e485b7aef312c260608301527f1800deef121f1e76426a00665e5c4479674322d4f75edadd46debd5cd992f6ed60808301527f090689d0585ff075ec9e99ad690c3395bc4b313370b38ef355acdadcd122975b60a08301527f12c85ea5db8c6deb4aab71808dcb408fe3d1e7690c43d37b4ce6cc0166fa7daa60c083015260e08201526101008101919091527f260e01b251f6f1c7e7ff4e580791dee8ea51d87a358e038b4efe30fac09383c16101208201527f0118c4d5b837bcc2bc89b5b398b5974e9f5944073b32078b7e231fec938883b06101408201527f04fc6369f7110fe3d25156c1bb9a72859cf2a04641f99ba4ee413c80da6a5fe46101608201527f22febda3c0c0632a56475b4214e5615e11e6dd3f96e6cea2854a87d4dacc5e556101808201525f9081906101a00160405160208183030381529060405290505f5f600873ffffffffffffffffffffffffffffffffffffffff1683604051612c899190615866565b5f60405180830381855afa9150503d805f8114612cc1576040519150601f19603f3d011682016040523d82523d5f602084013e612cc6565b606091505b50915091505f81806020019051810190612ce0919061587c565b9050828015612cec5750805b979650505050505050565b5f80808080612d07876003615673565b612d1290600c615673565b67ffffffffffffffff811115612d2a57612d2a61589b565b604051908082528060200260200182016040528015612d53578160200160208202803683370190505b509050875f1b815f81518110612d6b57612d6b615686565b602002602001018181525050865f1b81600181518110612d8d57612d8d615686565b602002602001018181525050855f1b81600281518110612daf57612daf615686565b60209081029190910101525f5b87811015612e0e578a8a82818110612dd657612dd6615686565b9050602002013582826003612deb9190615673565b81518110612dfb57612dfb615686565b6020908102919091010152600101612dbc565b508a515181612e1e896003615673565b81518110612e2e57612e2e615686565b6020908102919091018101919091528b51015181612e4d896003615673565b612e58906001615673565b81518110612e6857612e68615686565b60209081029190910101528a516040015181612e85896003615673565b612e90906002615673565b81518110612ea057612ea0615686565b60209081029190910101528a516060015181612ebd896003615673565b612ec8906003615673565b81518110612ed857612ed8615686565b6020908102919091018101919091528b01515181612ef7896003615673565b612f02906004615673565b81518110612f1257612f12615686565b6020908102919091018101919091528b810151015181612f33896003615673565b612f3e906005615673565b81518110612f4e57612f4e615686565b6020908102919091018101919091528b01516040015181612f70896003615673565b612f7b906006615673565b81518110612f8b57612f8b615686565b6020908102919091018101919091528b01516060015181612fad896003615673565b612fb8906007615673565b81518110612fc857612fc8615686565b602090810291909101015260408b01515181612fe5896003615673565b612ff0906008615673565b8151811061300057613000615686565b60209081029190910181019190915260408c0151015181613022896003615673565b61302d906009615673565b8151811061303d5761303d615686565b60209081029190910101526040808c015101518161305c896003615673565b61306790600a615673565b8151811061307757613077615686565b602090810291909101015260408b01516060015181613097896003615673565b6130a290600b615673565b815181106130b2576130b2615686565b6020026020010181815250506130d281604051602001611f0391906158c8565b91506130dd826131e5565b60408051602081018690529297509095506130f89101611f03565b91505f613104836131e5565b50959c949b509499509097509195505050505050565b5f5f5f613125615487565b85815260a0858101805151602080850191909152815181015160408086019190915282518101516060808701919091529251830151608086015260c0808a0180515195870195909552845183015190860152835181015160e0860152925182015161010085015281880180515161012086015280518201516101408601528051840151610160860152519091015161018084015290516131cb91611f03918491016158fd565b91506131d6826131e5565b90979096509194509092505050565b5f80826fffffffffffffffffffffffffffffffff8116608082901c61320982612408565b945061321481612408565b9350505050915091565b5f61322a846007614cf4565b90507f183227397098d014dc2822db40c0ac2e9419f4243cdcb848a1f0fac9f80000005f61328b61328561325f856003612491565b6105a761327a61326f8b5f614cf4565b6105a78c601c614cf4565b6105a78b601b614cf4565b83612439565b905061330c6133016132e86132cf6132b6856105ac6132ab8d6002614cf4565b6105a78e601b614cf4565b6105ac6132c48c6003614cf4565b6105a78d601c614cf4565b6105ac6132dd8b6004614cf4565b6105a78c601d614cf4565b6105ac6132f68a6005614cf4565b6105a78b601e614cf4565b6105ac886001614cf4565b905061332b816105ac613320866001612491565b6105a78a6026614cf4565b90506133378184612439565b90506133438185612439565b8552505f905061337d61337361336861335d88601b614cf4565b6105ac89601e614cf4565b6105ca886023614cf4565b6105ac875f614cf4565b905061338e816105a7846002612491565b905061339f816105a7846001612491565b90506133ab8183612439565b90506133b78184612439565b9050808460015b60200201525050505050565b5f5f5f6134006133f66133de89601b614cf4565b6105ac6133ec8b6011614cf4565b8a60600151612439565b8760800151612465565b9050613439816105a761342f6134178b601c614cf4565b6105ac6134258d6012614cf4565b8c60600151612439565b8960800151612465565b905061345e816105a761342f6134508b601d614cf4565b6105ac6134258d6013614cf4565b9050613483816105a761342f6134758b601e614cf4565b6105ac6134258d6014614cf4565b92505f90506134a76133f661349989601b614cf4565b6105ac6133ec8b600d614cf4565b90506134cc816105a761342f6134be8b601c614cf4565b6105ac6134258d600e614cf4565b90506134f1816105a761342f6134e38b601d614cf4565b6105ac6134258d600f614cf4565b9050613516816105a761342f6135088b601e614cf4565b6105ac6134258d6010614cf4565b91505f905061353d61353761352c89601f614cf4565b6105ac8a6019614cf4565b84612439565b9050613572816105ca61356c6135548b6027614cf4565b6105ac6135628d601a614cf4565b8c60a00151612439565b85612439565b905061357e8185612439565b6040860152505f6135a161356c61359689601a614cf4565b6105a78a6027614cf4565b606090950194909452505050505050565b5f5f6136106135f86135e06135cb61342f8a6015614cf4565b6105ac6135d98b6016614cf4565b8a51612439565b6105ac6135ee8a6017614cf4565b8960200151612439565b6105ac613606896018614cf4565b8860400151612439565b91505f61364761362e61362489601b614cf4565b8860800151612465565b6105ac61363c8a6003614cf4565b6105a78b6023614cf4565b90505f61367061365889601c614cf4565b6105ac6136658b5f614cf4565b6105a78c6024614cf4565b90505f61369a6136818a601d614cf4565b6105ac61368f8c6001614cf4565b6105a78d6025614cf4565b90506136d96136c16136b3856105ac868d5f0151612439565b6105ac848c60200151612439565b6105ac6136cf8c6004614cf4565b8b60400151612439565b93505050505f6136ed613537886020614cf4565b90505f6136fe613537896020614cf4565b90505f61373661371d6137128b6022614cf4565b6105ac8c6006614cf4565b6105ca61372b8c6022614cf4565b6105a78d6006614cf4565b90505f61375a6137546137498789612439565b6105a78d6020614cf4565b83612491565b90506137668188612439565b90505f61378e61378061377a8d6006614cf4565b87612439565b6105ca61377a8e6021614cf4565b60808a018390529050808960055b60200201525050505050505050505050565b5f6137ba5f6001612491565b90505f6137c85f6002612491565b90505f6137d65f6003612491565b90505f6137f26137e788601c614cf4565b6105ca89601b614cf4565b90505f61380e61380389601d614cf4565b6105ca8a601c614cf4565b90505f61382a61381f8a601e614cf4565b6105ca8b601d614cf4565b90505f61384661383b8b6023614cf4565b6105ca8c601e614cf4565b905083613857816105a7818b612465565b9050613867816105a7878a612465565b9050613877816105a78789612465565b9050613888816105a78d6008614cf4565b9050613894818a612439565b60c08b015250826138a9816105a7818b612465565b90506138b9816105a7868a612465565b90506138c9816105a78689612465565b90506138da816105a78d6008614cf4565b90506138e6818a612439565b60e08b015250816138fb816105a7818b612465565b905061390b816105a7858a612465565b905061391b816105a78589612465565b905061392c816105a78d6008614cf4565b9050613938818a612439565b6101008b0152508061394e816105a7818b612465565b905061395e816105a7848a612465565b905061396e816105a78489612465565b905061397f816105a78d6008614cf4565b905061398b818a612439565b9050808a600961379c565b6139cf6040518060e001604052805f81526020015f81526020015f81526020015f81526020015f81526020015f81526020015f81525090565b6139da84601c614cf4565b81526139e784601d614cf4565b60208201526139f7846023614cf4565b6040820152613a07846026614cf4565b6060820152613a17846025614cf4565b6080820152613a27846024614cf4565b60a08201525f613a38856002614cf4565b90505f613a45865f614cf4565b90505f613a598460400151855f0151612491565b90505f613a6e85602001518660200151612439565b606086015190915086905f90613a849080612439565b90505f613aa2613a9c89602001518a60600151612439565b88612439565b90505f613ac1613aba8a60a001518b60400151612465565b8a51612465565b9050613ad061377a8288612439565b9050613af7613af1613aeb613ae58487612491565b88612491565b84612465565b83612465565b9050613b1f613b14613b098387612439565b6105a78f6009614cf4565b6105a760018a612491565b6101408c015250505050602085015160808601515f91613b3e91612465565b90505f613b5c613b52886060015188612439565b8860200151612491565b90505f613b80613b6c8487612439565b6105ac61356c8b60a001518c5f0151612491565b9050613ba8613b9d613b92838c612439565b6105a78e6009614cf4565b6105a7600189612491565b6101608b0152505f9150613bc99050613bc2836011612465565b8751612439565b90505f613bd68384612465565b9050613be28182612465565b90505f613bf0836009612439565b9050613c19613c13613537613c0c8b60a001518c5f0151612465565b8b51612465565b82612491565b60c089018190525f90613c3490613a9c90613b09908d612439565b9050613c478b600a602002015182612465565b6101408c0152505086515f9250613c6e9150613bc290613c679080612465565b8851612465565b90505f613cae613c89836105a78a5f01518b60a00151612491565b60208901516105ca90613c9c9080612465565b6105a78b602001518c60800151612465565b9050613ccb89600b60200201516105ac613a9c613b09858d612439565b89600b602002015250505050505050505050565b613d73604051806102c001604052805f81526020015f81526020015f81526020015f81526020015f81526020015f81526020015f81526020015f81526020015f81526020015f81526020015f81526020015f81526020015f81526020015f81526020015f81526020015f81526020015f81526020015f81526020015f81526020015f81526020015f81526020015f81525090565b613da8613d8f613d8487601b614cf4565b6105a7886024614cf4565b6105ac613d9d886023614cf4565b6105a789601c614cf4565b8152613ded613de2613dc9613dbe88601b614cf4565b6105a789601e614cf4565b6105ac613dd789601c614cf4565b6105a78a601d614cf4565b6105ca876025614cf4565b60408201819052613e079068100000000000000000612439565b60408201819052613e1d906105ca876026614cf4565b604082018190528151613e309190612465565b60408201819052613e46906105a7876005614cf4565b60408201528051613e609068100000000000000000612439565b808252613e80906105ac613e75886023614cf4565b6105a7896024614cf4565b80825260208201819052613e9c906105ca61335d88601d614cf4565b60208201819052613eb2906105a7876004614cf4565b6020820152805160608201819052613ecf906105ac87601e614cf4565b60608201819052613ef3906105ca613ee8886025614cf4565b6105ac896026614cf4565b60608201819052613f08906105a7875f614cf4565b8160600181815250505f613f31613f2783602001518460400151612465565b8360600151612465565b9050613f42816105a7886003614cf4565b9050613f5a613f52876024614cf4565b614000612439565b60808301819052613f70906105ac886023614cf4565b60808301819052613f8390614000612439565b60808301819052613f99906105ac88601d614cf4565b60808301819052613fac90614000612439565b60808301819052613fc2906105ac88601c614cf4565b60808301819052613fd590614000612439565b60808301819052613feb906105ac88601b614cf4565b60808301819052614001906105ca88601e614cf4565b60808301819052614017906105a7886005614cf4565b608083015261402a613f52876025614cf4565b60a08301819052614040906105ac886024614cf4565b60a0830181905261405390614000612439565b60a08301819052614069906105ac886023614cf4565b60a0830181905261407c90614000612439565b60a08301819052614092906105ac88601e614cf4565b60a083018190526140a590614000612439565b60a083018190526140bb906105ac88601d614cf4565b60a083018190526140d1906105ca886026614cf4565b60a083018190526140e6906105a7885f614cf4565b60a0830181905260808301515f916140fe9190612465565b905061410f816105a7896004614cf4565b905061412961411f88601d614cf4565b8760400151612439565b60c08401819052614142906105ac6135ee8a601c614cf4565b60c08401819052614162906105ac61415b8a601b614cf4565b8951612439565b60c08401819052614178906105ac896001614cf4565b60c0840181905260e08401819052614195906105ca89601e614cf4565b60c08401526141a86137e7886023614cf4565b6101408401526141c76141bc886026614cf4565b6105ca89601e614cf4565b6101208401526101408301516141ec906141e19080612439565b846101400151612491565b610280840152610140830151614241906142369061422f906105a760017f30644e72e131a029b85045b68181585d2833e84879b9709143e1f593f00000016156b3565b6001612465565b846101200151612439565b61016084018190526142789061426a906105a761425f8b6002614cf4565b6105a78c6003614cf4565b6105a761377a8a600a614cf4565b6101a086015261028083015161429a9061426a906105a761425f8b6002614cf4565b6101c086015260c08301516142c2906105a76142b78a6002614cf4565b6105a78b6003614cf4565b6101e08401525f6142e16142d789601e614cf4565b8560e00151612491565b90506142f0613c138283612439565b6101a0850152614304613606896025614cf4565b6101008501819052614328906105ac61431e8b6024614cf4565b8a60200151612439565b6101008501819052614342906105ac6135d98b6023614cf4565b610100850152614361614356896026614cf4565b856101000151612491565b6101008501525f61437661381f8a6025614cf4565b90506143f06143b761328561422f88610140015160017f30644e72e131a029b85045b68181585d2833e84879b9709143e1f593f00000016105a791906156b3565b6105a761422f88610100015160017f30644e72e131a029b85045b68181585d2833e84879b9709143e1f593f00000016105a791906156b3565b6101808601526101008501516144159061440a9080612439565b866101000151612491565b6101c086015261018085015161444890614434906105a78c6007614cf4565b6105a76144428c600a614cf4565b89612439565b6101e088015261028085015161446790614434906105a78c6007614cf4565b6102008801526101c085015161448690614434906105a78c6007614cf4565b6102208801526101a08501516144a1906105a78b6007614cf4565b6102008601526144c06144b58a6024614cf4565b6105ca8b601c614cf4565b6102208601526101408501516145129061381f906145079061422f906105a760017f30644e72e131a029b85045b68181585d2833e84879b9709143e1f593f00000016156b3565b876102200151612439565b61024086018190526101e08601516102608701819052614549916105ac906105a761453e8e6005614cf4565b6105a78f6002614cf4565b610260860181905260c086015161456c91906105ac906105a761453e8e5f614cf4565b61026086018190526102008601516145849190612465565b610260860181905261459a90613aeb9086612465565b6102a086018190526145b4906105a76144428c600a614cf4565b6102a0860181905287600c6020020152505050505050505050565b6146456040518061022001604052805f81526020015f81526020015f81526020015f81526020015f81526020015f81526020015f81526020015f81526020015f81526020015f81526020015f81526020015f81526020015f81526020015f81526020015f81526020015f81526020015f81525090565b61465e61465385601b614cf4565b6105ac866002614cf4565b815261467961466e85601c614cf4565b6105ac866003614cf4565b602082015261469761468c85601d614cf4565b6105ac866004614cf4565b60408201526146b56146aa85601e614cf4565b6105ac866005614cf4565b606082015280516146e7906146e0906146d9906146d29080612439565b8451612439565b8351612439565b8251612439565b608082015260208101516147259061471b90614711906147079080612439565b8460200151612439565b8360200151612439565b8260200151612439565b60a08201526040810151614763906147599061474f906147459080612439565b8460400151612439565b8360400151612439565b8260400151612439565b60c082015260608101516147a1906147979061478d906147839080612439565b8460600151612439565b8360600151612439565b8260600151612439565b60e0820152608081015160a08201516147ba9190612465565b61010082015260c081015160e08201516147d49190612465565b61012082015260a08101516147f8906147ed9080612465565b826101200151612465565b61014082015260e081015161481c906148119080612465565b826101000151612465565b6101608201526101208101516148329080612465565b6101e08201819052614853906148489080612465565b826101600151612465565b6101e08201526101008101516148699080612465565b6101a0820181905261488a9061487f9080612465565b826101400151612465565b6101a082018190526101608201516148a191612465565b6101808201526101408101516101e08201516148bd9190612465565b6101c08201526148d161328585600b614cf4565b61020082018190526102408401516101808301516148fc926105ac916105a7906105ca8a6023614cf4565b836012602002015261492c83601360200201516105ac8361020001516105a7856101a001516105ca8a6024614cf4565b836013602002015261495c83601460200201516105ac8361020001516105a7856101c001516105ca8a6025614cf4565b836014602002015261498c83601560200201516105ac8361020001516105a7856101e001516105ca8a6026614cf4565b836015602002015250505050565b6149ec6040518061016001604052805f81526020015f81526020015f81526020015f81526020015f81526020015f81526020015f81526020015f81526020015f81526020015f81526020015f81525090565b5f6040518060800160405280614a217f10dc6e9c006ea38b04b1e03b4bd9490c0d03f98929ca1d7fb56821fd19d3b6e7612408565b8152602001614a4f7f0c28145b6a44df3e0149b3d0a30b3bb599df9756d4dd9b84a86b38cfb45a740b612408565b8152602001614a7c7e544b8338791518b2c7645a50392798b21f75bb60e3596170067d00141cac15612408565b8152602001614aaa7f222c01175718386f2e2e82eb122789e352e105a3b8fa852613bc534433ee428b612408565b90529050614ac7614abc86601b614cf4565b6105ac876002614cf4565b6101208301819052614afb90614af09061423690614ae59080612439565b856101200151612439565b836101200151612439565b8252614b0885601c614cf4565b6020830152614b1885601d614cf4565b6040830152614b2885601e614cf4565b606083015281516020830151614b5091613f2791614b469190612465565b8460400151612465565b6080830152614b6361353786600c614cf4565b6101408301528151614b8490614b7a90835f611131565b8360800151612465565b60a0830152614bb084601660200201516105ac8461014001516105a78660a001516105ca8b6023614cf4565b6102c08501526020820151614bcb90614b7a90836001611131565b60c0830152614bf784601760200201516105ac8461014001516105a78660c001516105ca8b6024614cf4565b6102e08501526040820151614c1290614b7a90836002611131565b60e0830152614c3e84601860200201516105ac8461014001516105a78660e001516105ca8b6025614cf4565b6103008501526060820151614c5990614b7a90836003611131565b610100830152614c8784601960200201516105ac8461014001516105a78661010001516105ca8b6026614cf4565b8460196133be565b5f614c9b81848161082e565b905060015b601a811015614ced57614ce3826105ac8684601a8110614cc257614cc2615686565b602002015186614cd36001876156b3565b6019811061113157611131615686565b9150600101614ca0565b5092915050565b5f82826027811115614d0857614d08615931565b60288110614d1857614d18615686565b60200201519392505050565b604051806103c001604052805f81526020015f81526020015f8152602001614d5d60405180604001604052805f81526020015f81525090565b8152602001614d7d60405180604001604052805f81526020015f81525090565b8152602001614d9d60405180604001604052805f81526020015f81525090565b8152602001614dbd60405180604001604052805f81526020015f81525090565b8152602001614ddd60405180604001604052805f81526020015f81525090565b8152602001614dfd60405180604001604052805f81526020015f81525090565b8152602001614e1d60405180604001604052805f81526020015f81525090565b8152602001614e3d60405180604001604052805f81526020015f81525090565b8152602001614e5d60405180604001604052805f81526020015f81525090565b8152602001614e7d60405180604001604052805f81526020015f81525090565b8152602001614e9d60405180604001604052805f81526020015f81525090565b8152602001614ebd60405180604001604052805f81526020015f81525090565b8152602001614edd60405180604001604052805f81526020015f81525090565b8152602001614efd60405180604001604052805f81526020015f81525090565b8152602001614f1d60405180604001604052805f81526020015f81525090565b8152602001614f3d60405180604001604052805f81526020015f81525090565b8152602001614f5d60405180604001604052805f81526020015f81525090565b8152602001614f7d60405180604001604052805f81526020015f81525090565b8152602001614f9d60405180604001604052805f81526020015f81525090565b8152602001614fbd60405180604001604052805f81526020015f81525090565b8152602001614fdd60405180604001604052805f81526020015f81525090565b8152602001614ffd60405180604001604052805f81526020015f81525090565b815260200161501d60405180604001604052805f81526020015f81525090565b815260200161503d60405180604001604052805f81526020015f81525090565b815260200161505d60405180604001604052805f81526020015f81525090565b815260200161507d60405180604001604052805f81526020015f81525090565b815260200161509d60405180604001604052805f81526020015f81525090565b905290565b604051806101c001604052806150d560405180608001604052805f81526020015f81526020015f81526020015f81525090565b815260200161510160405180608001604052805f81526020015f81526020015f81526020015f81525090565b815260200161512d60405180608001604052805f81526020015f81526020015f81526020015f81525090565b815260200161515960405180608001604052805f81526020015f81526020015f81526020015f81525090565b815260200161518560405180608001604052805f81526020015f81526020015f81526020015f81525090565b81526020016151b160405180608001604052805f81526020015f81526020015f81526020015f81525090565b81526020016151dd60405180608001604052805f81526020015f81526020015f81526020015f81525090565b815260200161520960405180608001604052805f81526020015f81526020015f81526020015f81525090565b81526020016152166154a6565b81526020016152236154d4565b81526020016152306154f3565b815260200161523d6153af565b815260200161526960405180608001604052805f81526020015f81526020015f81526020015f81525090565b815260200161509d60405180608001604052805f81526020015f81526020015f81526020015f81525090565b6040518061010001604052806152d46040518060c001604052805f81526020015f81526020015f81526020015f81526020015f81526020015f81525090565b81526020016152e1615371565b81526020016152ee6153af565b81526020016152fb6153af565b81526020015f81526020015f81526020015f81526020015f81525090565b604051806108c001604052806046906020820280368337509192915050565b604051806108c001604052806046905b604080518082019091525f80825260208201528152602001906001900390816153485790505090565b6040518061032001604052806019906020820280368337509192915050565b6040518061012001604052806009906020820280368337509192915050565b604051806103800160405280601c906020820280368337509192915050565b6040518061052001604052806029906020820280368337509192915050565b60405180610da00160405280606d906020820280368337509192915050565b604051806103a00160405280601d906020820280368337509192915050565b6040518060a001604052806005906020820280368337509192915050565b6040518061010001604052806008906020820280368337509192915050565b604051806103400160405280601a906020820280368337509192915050565b604051806101a00160405280600d906020820280368337509192915050565b604051806103800160405280601c905b6154be615449565b8152602001906001900390816154b65790505090565b6040518061050001604052806028906020820280368337509192915050565b604051806103600160405280601b905b61552a60405180608001604052805f81526020015f81526020015f81526020015f81525090565b8152602001906001900390816155035790505090565b5f5f5f5f60408587031215615553575f5ffd5b843567ffffffffffffffff811115615569575f5ffd5b8501601f81018713615579575f5ffd5b803567ffffffffffffffff81111561558f575f5ffd5b8760208284010111156155a0575f5ffd5b60209182019550935085013567ffffffffffffffff8111156155c0575f5ffd5b8501601f810187136155d0575f5ffd5b803567ffffffffffffffff8111156155e6575f5ffd5b8760208260051b84010111156155fa575f5ffd5b949793965060200194505050565b7f4e487b71000000000000000000000000000000000000000000000000000000005f52601160045260245ffd5b808202811582820484141761243357612433615608565b5f5f8585111561565a575f5ffd5b83861115615666575f5ffd5b5050820193919092039150565b8082018082111561243357612433615608565b7f4e487b71000000000000000000000000000000000000000000000000000000005f52603260045260245ffd5b8181038181111561243357612433615608565b5f5f1982036156d7576156d7615608565b5060010190565b80356020831015612433575f19602084900360031b1b1692915050565b5f8183825b600981101561571f578151835260209283019290910190600101615700565b5050506101208201905092915050565b7f4e487b71000000000000000000000000000000000000000000000000000000005f52601260045260245ffd5b5f8261576a5761576a61572f565b500490565b5f8183825b6029811015615793578151835260209283019290910190600101615774565b5050506105208201905092915050565b5f8183825b606d8110156157c75781518352602092830192909101906001016157a8565b505050610da08201905092915050565b5f8183825b601d8110156157fb5781518352602092830192909101906001016157dc565b5050506103a08201905092915050565b5f8183825b600581101561582f578151835260209283019290910190600101615810565b50505060a08201905092915050565b5f8261584c5761584c61572f565b500690565b5f8161585f5761585f615608565b505f190190565b5f82518060208501845e5f920191825250919050565b5f6020828403121561588c575f5ffd5b81518015158114611dee575f5ffd5b7f4e487b71000000000000000000000000000000000000000000000000000000005f52604160045260245ffd5b81515f90829060208501835b828110156158f25781518452602093840193909101906001016158d4565b509195945050505050565b5f8183825b600d811015615921578151835260209283019290910190600101615902565b5050506101a08201905092915050565b7f4e487b71000000000000000000000000000000000000000000000000000000005f52602160045260245ffdfea264697066735822122058ea051ce6a19b945cfff8f4263e582d3c208a8028d64b02292e5aa52ef5b4bd64736f6c634300081e0033","linkReferences":{}},"methodIdentifiers":{"verify(bytes,bytes32[])":"ea50d0e4"},"id":1}