{"abi":[{"type":"function","name":"arithmeticError","inputs":[],"outputs":[{"name":"","type":"bytes","internalType":"bytes"}],"stateMutability":"view"},{"type":"function","name":"assertionError","inputs":[],"outputs":[{"name":"","type":"bytes","internalType":"bytes"}],"stateMutability":"view"},{"type":"function","name":"divisionError","inputs":[],"outputs":[{"name":"","type":"bytes","internalType":"bytes"}],"stateMutability":"view"},{"type":"function","name":"encodeStorageError","inputs":[],"outputs":[{"name":"","type":"bytes","internalType":"bytes"}],"stateMutability":"view"},{"type":"function","name":"enumConversionError","inputs":[],"outputs":[{"name":"","type":"bytes","internalType":"bytes"}],"stateMutability":"view"},{"type":"function","name":"indexOOBError","inputs":[],"outputs":[{"name":"","type":"bytes","internalType":"bytes"}],"stateMutability":"view"},{"type":"function","name":"memOverflowError","inputs":[],"outputs":[{"name":"","type":"bytes","internalType":"bytes"}],"stateMutability":"view"},{"type":"function","name":"popError","inputs":[],"outputs":[{"name":"","type":"bytes","internalType":"bytes"}],"stateMutability":"view"},{"type":"function","name":"zeroVarError","inputs":[],"outputs":[{"name":"","type":"bytes","internalType":"bytes"}],"stateMutability":"view"}],"bytecode":{"object":"0x6102ac610034600b8282823980515f1a607314602857634e487b7160e01b5f525f60045260245ffd5b305f52607381538281f3fe73000000000000000000000000000000000000000030146080604052600436106100aa575f3560e01c8063986c5f681161007d578063b67689da11610063578063b67689da146100f4578063d160e4de146100fc578063fa784a4414610104575f5ffd5b8063986c5f68146100e4578063b22dc54d146100ec575f5ffd5b806305ee8612146100ae57806310332977146100cc5780631de45560146100d45780638995290f146100dc575b5f5ffd5b6100b661010c565b6040516100c39190610223565b60405180910390f35b6100b6610193565b6100b66101a5565b6100b66101b7565b6100b66101c9565b6100b66101db565b6100b66101ed565b6100b66101ff565b6100b6610211565b604051603260248201526044015b604080517fffffffffffffffffffffffffffffffffffffffffffffffffffffffffffffffe08184030181529190526020810180517bffffffffffffffffffffffffffffffffffffffffffffffffffffffff167f4e487b710000000000000000000000000000000000000000000000000000000017905281565b6040516001602482015260440161011a565b6040516021602482015260440161011a565b6040516011602482015260440161011a565b6040516041602482015260440161011a565b6040516031602482015260440161011a565b6040516051602482015260440161011a565b6040516022602482015260440161011a565b6040516012602482015260440161011a565b602081525f82518060208401528060208501604085015e5f6040828501015260407fffffffffffffffffffffffffffffffffffffffffffffffffffffffffffffffe0601f8301168401019150509291505056fea26469706673582212207c7108dbcd3c29a44d82ceb12509e02140bdd2fa4d5775ea05712b024d0fc49664736f6c634300081e0033","linkReferences":{}},"methodIdentifiers":{"arithmeticError()":"8995290f","assertionError()":"10332977","divisionError()":"fa784a44","encodeStorageError()":"d160e4de","enumConversionError()":"1de45560","indexOOBError()":"05ee8612","memOverflowError()":"986c5f68","popError()":"b22dc54d","zeroVarError()":"b67689da"},"id":8}