{"abi":[{"type":"constructor","inputs":[{"name":"_verifier","type":"address","internalType":"contract HonkVerifier"}],"stateMutability":"nonpayable"},{"type":"function","name":"getVerifiedCount","inputs":[],"outputs":[{"name":"","type":"uint256","internalType":"uint256"}],"stateMutability":"view"},{"type":"function","name":"verifiedCount","inputs":[],"outputs":[{"name":"","type":"uint256","internalType":"uint256"}],"stateMutability":"view"},{"type":"function","name":"verifier","inputs":[],"outputs":[{"name":"","type":"address","internalType":"contract HonkVerifier"}],"stateMutability":"view"},{"type":"function","name":"verifyEqual","inputs":[{"name":"proof","type":"bytes","internalType":"bytes"},{"name":"publicInputs","type":"bytes32[]","internalType":"bytes32[]"}],"outputs":[{"name":"","type":"bool","internalType":"bool"}],"stateMutability":"nonpayable"}],"bytecode":{"object":"0x6080604052348015600e575f5ffd5b5060405161049d38038061049d833981016040819052602b91604e565b5f80546001600160a01b0319166001600160a01b03929092169190911790556079565b5f60208284031215605d575f5ffd5b81516001600160a01b03811681146072575f5ffd5b9392505050565b610417806100865f395ff3fe608060405234801561000f575f5ffd5b506004361061004a575f3560e01c80632b7ac3f31461004e5780636bfe4ec2146100975780637d08867e146100ae578063cb794042146100d1575b5f5ffd5b5f5461006d9073ffffffffffffffffffffffffffffffffffffffff1681565b60405173ffffffffffffffffffffffffffffffffffffffff90911681526020015b60405180910390f35b6100a060015481565b60405190815260200161008e565b6100c16100bc3660046101ff565b6100d9565b604051901515815260200161008e565b6001546100a0565b5f80546040517fea50d0e4000000000000000000000000000000000000000000000000000000008152829173ffffffffffffffffffffffffffffffffffffffff169063ea50d0e4906101359089908990899089906004016102c7565b602060405180830381865afa158015610150573d5f5f3e3d5ffd5b505050506040513d601f19601f82011682018060405250810190610174919061035f565b9050806101e1576040517f08c379a000000000000000000000000000000000000000000000000000000000815260206004820152601260248201527f50726f6f66206973206e6f742076616c69640000000000000000000000000000604482015260640160405180910390fd5b60018054905f6101f083610385565b90915550909695505050505050565b5f5f5f5f60408587031215610212575f5ffd5b843567ffffffffffffffff811115610228575f5ffd5b8501601f81018713610238575f5ffd5b803567ffffffffffffffff81111561024e575f5ffd5b87602082840101111561025f575f5ffd5b60209182019550935085013567ffffffffffffffff81111561027f575f5ffd5b8501601f8101871361028f575f5ffd5b803567ffffffffffffffff8111156102a5575f5ffd5b8760208260051b84010111156102b9575f5ffd5b949793965060200194505050565b60408152836040820152838560608301375f606085830101525f7fffffffffffffffffffffffffffffffffffffffffffffffffffffffffffffffe0601f860116820160608382030160208401528360608201527f07ffffffffffffffffffffffffffffffffffffffffffffffffffffffffffffff841115610346575f5ffd5b8360051b80866080840137016080019695505050505050565b5f6020828403121561036f575f5ffd5b8151801515811461037e575f5ffd5b9392505050565b5f7fffffffffffffffffffffffffffffffffffffffffffffffffffffffffffffffff82036103da577f4e487b71000000000000000000000000000000000000000000000000000000005f52601160045260245ffd5b506001019056fea26469706673582212200dc0d0b8aff961438a2634272b8ca6c21329db31aac6a944fce748ff6dcd16d964736f6c634300081e0033","linkReferences":{}},"methodIdentifiers":{"getVerifiedCount()":"cb794042","verifiedCount()":"6bfe4ec2","verifier()":"2b7ac3f3","verifyEqual(bytes,bytes32[])":"7d08867e"},"id":0}